{
  "abi": [
    {
      "inputs": [
        {
          "internalType": "address",
          "name": "_vrfCoordinator",
          "type": "address"
        },
        {
          "internalType": "address",
          "name": "_link",
          "type": "address"
        }
      ],
      "stateMutability": "nonpayable",
      "type": "constructor"
    },
    {
      "anonymous": false,
      "inputs": [
        {
          "indexed": true,
          "internalType": "address",
          "name": "previousOwner",
          "type": "address"
        },
        {
          "indexed": true,
          "internalType": "address",
          "name": "newOwner",
          "type": "address"
        }
      ],
      "name": "OwnershipTransferred",
      "type": "event"
    },
    {
      "anonymous": false,
      "inputs": [
        {
          "indexed": true,
          "internalType": "uint32",
          "name": "requestId",
          "type": "uint32"
        },
        {
          "indexed": false,
          "internalType": "uint256",
          "name": "randomNumber",
          "type": "uint256"
        }
      ],
      "name": "RandomNumberCompleted",
      "type": "event"
    },
    {
      "anonymous": false,
      "inputs": [
        {
          "indexed": true,
          "internalType": "uint32",
          "name": "requestId",
          "type": "uint32"
        },
        {
          "indexed": true,
          "internalType": "address",
          "name": "sender",
          "type": "address"
        }
      ],
      "name": "RandomNumberRequested",
      "type": "event"
    },
    {
      "inputs": [
        {
          "internalType": "bytes32",
          "name": "requestId",
          "type": "bytes32"
        },
        {
          "internalType": "uint256",
          "name": "randomness",
          "type": "uint256"
        }
      ],
      "name": "fulfillRandomness",
      "outputs": [],
      "stateMutability": "nonpayable",
      "type": "function"
    },
    {
      "inputs": [],
      "name": "getLastRequestId",
      "outputs": [
        {
          "internalType": "uint32",
          "name": "requestId",
          "type": "uint32"
        }
      ],
      "stateMutability": "view",
      "type": "function"
    },
    {
      "inputs": [],
      "name": "getRequestFee",
      "outputs": [
        {
          "internalType": "address",
          "name": "feeToken",
          "type": "address"
        },
        {
          "internalType": "uint256",
          "name": "requestFee",
          "type": "uint256"
        }
      ],
      "stateMutability": "view",
      "type": "function"
    },
    {
      "inputs": [
        {
          "internalType": "uint32",
          "name": "requestId",
          "type": "uint32"
        }
      ],
      "name": "isRequestComplete",
      "outputs": [
        {
          "internalType": "bool",
          "name": "isCompleted",
          "type": "bool"
        }
      ],
      "stateMutability": "view",
      "type": "function"
    },
    {
      "inputs": [
        {
          "internalType": "bytes32",
          "name": "",
          "type": "bytes32"
        }
      ],
      "name": "nonces",
      "outputs": [
        {
          "internalType": "uint256",
          "name": "",
          "type": "uint256"
        }
      ],
      "stateMutability": "view",
      "type": "function"
    },
    {
      "inputs": [],
      "name": "owner",
      "outputs": [
        {
          "internalType": "address",
          "name": "",
          "type": "address"
        }
      ],
      "stateMutability": "view",
      "type": "function"
    },
    {
      "inputs": [
        {
          "internalType": "uint32",
          "name": "requestId",
          "type": "uint32"
        }
      ],
      "name": "randomNumber",
      "outputs": [
        {
          "internalType": "uint256",
          "name": "randomNum",
          "type": "uint256"
        }
      ],
      "stateMutability": "nonpayable",
      "type": "function"
    },
    {
      "inputs": [],
      "name": "renounceOwnership",
      "outputs": [],
      "stateMutability": "nonpayable",
      "type": "function"
    },
    {
      "inputs": [],
      "name": "requestRandomNumber",
      "outputs": [
        {
          "internalType": "uint32",
          "name": "requestId",
          "type": "uint32"
        },
        {
          "internalType": "uint32",
          "name": "lockBlock",
          "type": "uint32"
        }
      ],
      "stateMutability": "nonpayable",
      "type": "function"
    },
    {
      "inputs": [
        {
          "internalType": "bytes32",
          "name": "_keyHash",
          "type": "bytes32"
        },
        {
          "internalType": "uint256",
          "name": "_fee",
          "type": "uint256"
        },
        {
          "internalType": "uint256",
          "name": "_seed",
          "type": "uint256"
        }
      ],
      "name": "requestRandomness",
      "outputs": [
        {
          "internalType": "bytes32",
          "name": "requestId",
          "type": "bytes32"
        }
      ],
      "stateMutability": "nonpayable",
      "type": "function"
    },
    {
      "inputs": [
        {
          "internalType": "uint256",
          "name": "_fee",
          "type": "uint256"
        }
      ],
      "name": "setFee",
      "outputs": [],
      "stateMutability": "nonpayable",
      "type": "function"
    },
    {
      "inputs": [
        {
          "internalType": "bytes32",
          "name": "_keyhash",
          "type": "bytes32"
        }
      ],
      "name": "setKeyhash",
      "outputs": [],
      "stateMutability": "nonpayable",
      "type": "function"
    },
    {
      "inputs": [
        {
          "internalType": "address",
          "name": "newOwner",
          "type": "address"
        }
      ],
      "name": "transferOwnership",
      "outputs": [],
      "stateMutability": "nonpayable",
      "type": "function"
    }
  ],
  "address": "0x7f0BA078DbF03932419afa5b26A5Df4a29dCdbdA",
  "args": [
    "0xf720CF1B963e0e7bE9F58fd471EFa67e7bF00cfb",
    "0x20fE562d797A42Dcb3399062AE9546cd06f63280"
  ],
  "bytecode": "0x608060405234801561001057600080fd5b50604051610ce8380380610ce88339818101604052604081101561003357600080fd5b508051602090910151600180546001600160a01b038085166001600160a01b031992831617909255600080549284169290911691909117815561007d6001600160e01b036100d216565b600380546001600160a01b0319166001600160a01b038316908117909155604051919250906000907f8be0079c531659141344cd1fd0a4f28419497f9722a3daafe3b4186f6b6457e0908290a35050506100d6565b3390565b610c03806100e56000396000f3fe608060405234801561001057600080fd5b50600436106100cf5760003560e01c8063715018a61161008c5780639d2a5f98116100665780639d2a5f981461020d5780639e317f1214610242578063dc6cfe101461025f578063f2fde38b14610288576100cf565b8063715018a6146101b65780638678a7b2146101be5780638da5cb5b146101e9576100cf565b80630d37b537146100d457806319c2b4c3146100ff5780631f1f897f146101205780633a19b9bc146101455780636309b7731461017c57806369fe0e2d14610199575b600080fd5b6100dc6102ae565b604080516001600160a01b03909316835260208301919091528051918290030190f35b6101076102c2565b6040805163ffffffff9092168252519081900360200190f35b6101436004803603604081101561013657600080fd5b50803590602001356102ce565b005b6101686004803603602081101561015b57600080fd5b503563ffffffff16610361565b604080519115158252519081900360200190f35b6101436004803603602081101561019257600080fd5b503561037e565b610143600480360360208110156101af57600080fd5b50356103db565b610143610438565b6101c66104da565b6040805163ffffffff938416815291909216602082015281519081900390910190f35b6101f161062d565b604080516001600160a01b039092168252519081900360200190f35b6102306004803603602081101561022357600080fd5b503563ffffffff1661063c565b60408051918252519081900360200190f35b6102306004803603602081101561025857600080fd5b5035610654565b6102306004803603606081101561027557600080fd5b5080359060208101359060400135610666565b6101436004803603602081101561029e57600080fd5b50356001600160a01b03166107dd565b6000546005546001600160a01b0390911691565b60065463ffffffff1690565b6001546001600160a01b031633146103175760405162461bcd60e51b8152600401808060200182810382526024815260200180610b646024913960400191505060405180910390fd5b60008281526009602052604090205463ffffffff9081169061035c9082906103579060019061034b9087906014906108d616565b9063ffffffff61093b16565b61099c565b505050565b63ffffffff90811660009081526008602052604090205416431190565b6103866109ed565b6003546001600160a01b039081169116146103d6576040805162461bcd60e51b81526020600482018190526024820152600080516020610b88833981519152604482015290519081900360640190fd5b600455565b6103e36109ed565b6003546001600160a01b03908116911614610433576040805162461bcd60e51b81526020600482018190526024820152600080516020610b88833981519152604482015290519081900360640190fd5b600555565b6104406109ed565b6003546001600160a01b03908116911614610490576040805162461bcd60e51b81526020600482018190526024820152600080516020610b88833981519152604482015290519081900360640190fd5b6003546040516000916001600160a01b0316907f8be0079c531659141344cd1fd0a4f28419497f9722a3daafe3b4186f6b6457e0908390a3600380546001600160a01b0319169055565b60008060006104e76109f1565b60008054600554604080516323b872dd60e01b81523360048201523060248201526044810192909252514396509394506001600160a01b03909116926323b872dd92606480840193602093929083900390910190829087803b15801561054c57600080fd5b505af1158015610560573d6000803e3d6000fd5b505050506040513d602081101561057657600080fd5b50516105c9576040805162461bcd60e51b815260206004820181905260248201527f524e47436861696e6c696e6b2f6665652d7472616e736665722d6661696c6564604482015290519081900360640190fd5b6105d2816109fa565b63ffffffff818116600081815260086020526040808220805463ffffffff1916948816949094179093559151929550339290917fcf635b20f2defc1e71326dc4f0b616fa676e29a5bae87da19fcaddc550b33f0391a3509091565b6003546001600160a01b031690565b63ffffffff1660009081526007602052604090205490565b60026020526000908152604090205481565b60008054600154604080516020808201899052818301879052825180830384018152606080840194859052630200057560e51b9094526001600160a01b0394851660648401818152608485018b905260a48501958652825160c486015282519690971696634000aea09691958b9593949193909260e4909101918501908083838d5b838110156107005781810151838201526020016106e8565b50505050905090810190601f16801561072d5780820380516001836020036101000a031916815260200191505b50945050505050602060405180830381600087803b15801561074e57600080fd5b505af1158015610762573d6000803e3d6000fd5b505050506040513d602081101561077857600080fd5b505060008481526002602052604081205461079890869085903090610a3e565b6000868152600260205260409020549091506107bb90600163ffffffff61093b16565b6000868152600260205260409020556107d48582610a85565b95945050505050565b6107e56109ed565b6003546001600160a01b03908116911614610835576040805162461bcd60e51b81526020600482018190526024820152600080516020610b88833981519152604482015290519081900360640190fd5b6001600160a01b03811661087a5760405162461bcd60e51b8152600401808060200182810382526026815260200180610b3e6026913960400191505060405180910390fd5b6003546040516001600160a01b038084169216907f8be0079c531659141344cd1fd0a4f28419497f9722a3daafe3b4186f6b6457e090600090a3600380546001600160a01b0319166001600160a01b0392909216919091179055565b60008161092a576040805162461bcd60e51b815260206004820152601860248201527f536166654d6174683a206d6f64756c6f206279207a65726f0000000000000000604482015290519081900360640190fd5b81838161093357fe5b069392505050565b600082820183811015610995576040805162461bcd60e51b815260206004820152601b60248201527f536166654d6174683a206164646974696f6e206f766572666c6f770000000000604482015290519081900360640190fd5b9392505050565b63ffffffff8216600081815260076020908152604091829020849055815184815291517f629394f18de7accce1179c28c39be59503a57cbcf45980a2772743b041b362719281900390910190a25050565b3390565b60001943014090565b6000610a04610ab1565b90506000610a1760045460055485610666565b6000908152600960205260409020805463ffffffff191663ffffffff841617905550919050565b60408051602080820196909652808201949094526001600160a01b039290921660608401526080808401919091528151808403909101815260a09092019052805191012090565b604080516020808201949094528082019290925280518083038201815260609092019052805191012090565b600654600090610ad690610ad19063ffffffff9081169060019061093b16565b610af4565b6006805463ffffffff191663ffffffff928316179081905516919050565b60006401000000008210610b395760405162461bcd60e51b8152600401808060200182810382526026815260200180610ba86026913960400191505060405180910390fd5b509056fe4f776e61626c653a206e6577206f776e657220697320746865207a65726f2061646472657373524e47436861696e6c696e6b2f696e76616c69642d7672662d636f6f7264696e61746f724f776e61626c653a2063616c6c6572206973206e6f7420746865206f776e657253616665436173743a2076616c756520646f65736e27742066697420696e2033322062697473a2646970667358221220dd9113141c91efd6a4a31e6043e53df2355f16051bc4617754aa5482eb40700364736f6c63430006060033",
  "userdoc": {
    "methods": {
      "fulfillRandomness(bytes32,uint256)": {
        "notice": "Callback function used by VRF Coordinator"
      },
      "getLastRequestId()": {
        "notice": "Gets the last request id used by the RNG service"
      },
      "getRequestFee()": {
        "notice": "Gets the Fee for making a Request against an RNG service"
      },
      "isRequestComplete(uint32)": {
        "notice": "Checks if the request for randomness from the 3rd-party service has completed"
      },
      "randomNumber(uint32)": {
        "notice": "Gets the random number produced by the 3rd-party service"
      },
      "requestRandomNumber()": {
        "notice": "Sends a request for a random number to the 3rd-party service"
      },
      "requestRandomness(bytes32,uint256,uint256)": {
        "notice": "requestRandomness initiates a request for VRF output given _seed"
      },
      "setFee(uint256)": {
        "notice": "Allows governance to set the fee per request required by the VRF"
      },
      "setKeyhash(bytes32)": {
        "notice": "Allows governance to set the VRF keyhash"
      }
    }
  },
  "devdoc": {
    "methods": {
      "constructor": {
        "details": "Public constructor"
      },
      "fulfillRandomness(bytes32,uint256)": {
        "details": "The VRF Coordinator will only send this function verified responses.The VRF Coordinator will not pass randomness that could not be verified."
      },
      "isRequestComplete(uint32)": {
        "details": "For time-delayed requests, this function is used to check/confirm completion",
        "params": {
          "requestId": "The ID of the request used to get the results of the RNG service"
        },
        "returns": {
          "isCompleted": "True if the request has completed and a random number is available, false otherwise"
        }
      },
      "owner()": {
        "details": "Returns the address of the current owner."
      },
      "randomNumber(uint32)": {
        "params": {
          "requestId": "The ID of the request used to get the results of the RNG service"
        },
        "returns": {
          "randomNum": "The random number"
        }
      },
      "renounceOwnership()": {
        "details": "Leaves the contract without owner. It will not be possible to call `onlyOwner` functions anymore. Can only be called by the current owner.     * NOTE: Renouncing ownership will leave the contract without an owner, thereby removing any functionality that is only available to the owner."
      },
      "requestRandomNumber()": {
        "details": "Some services will complete the request immediately, others may have a time-delaySome services require payment in the form of a token, such as $LINK for Chainlink VRF",
        "returns": {
          "lockBlock": "The block number at which the RNG service will start generating time-delayed randomness.  The calling contract should \"lock\" all activity until the result is available via the `requestId`",
          "requestId": "The ID of the request used to get the results of the RNG service"
        }
      },
      "requestRandomness(bytes32,uint256,uint256)": {
        "details": "The source of the seed data must be something which the oraclecannot anticipate. See \"SECURITY CONSIDERATIONS\" above.The fulfillRandomness method receives the output, once it's providedby the Oracle, and verified by the vrfCoordinator.The _keyHash must already be registered with the VRFCoordinator, andthe _fee must exceed the fee specified during registration of the_keyHash.The returned requestId can be used to distinguish responses to *concurrent requests. It is passed as the first argument tofulfillRandomness.",
        "params": {
          "_fee": "The amount of LINK to send with the request",
          "_keyHash": "ID of public key against which randomness is generated",
          "_seed": "Random seed from which output randomness is determined"
        },
        "returns": {
          "requestId": "which will be returned with the response to this request"
        }
      },
      "setFee(uint256)": {
        "params": {
          "_fee": "The fee to be charged for a request"
        }
      },
      "setKeyhash(bytes32)": {
        "params": {
          "_keyhash": "The keyhash to be used by the VRF"
        }
      },
      "transferOwnership(address)": {
        "details": "Transfers ownership of the contract to a new account (`newOwner`). Can only be called by the current owner."
      }
    }
  },
  "storageLayout": {
    "storage": [
      {
        "astId": 75,
        "contract": "contracts/RNGChainlink.sol:RNGChainlink",
        "label": "LINK",
        "offset": 0,
        "slot": "0",
        "type": "t_contract(LinkTokenInterface)245"
      },
      {
        "astId": 77,
        "contract": "contracts/RNGChainlink.sol:RNGChainlink",
        "label": "vrfCoordinator",
        "offset": 0,
        "slot": "1",
        "type": "t_address"
      },
      {
        "astId": 81,
        "contract": "contracts/RNGChainlink.sol:RNGChainlink",
        "label": "nonces",
        "offset": 0,
        "slot": "2",
        "type": "t_mapping(t_bytes32,t_uint256)"
      },
      {
        "astId": 415,
        "contract": "contracts/RNGChainlink.sol:RNGChainlink",
        "label": "_owner",
        "offset": 0,
        "slot": "3",
        "type": "t_address"
      },
      {
        "astId": 1266,
        "contract": "contracts/RNGChainlink.sol:RNGChainlink",
        "label": "keyHash",
        "offset": 0,
        "slot": "4",
        "type": "t_bytes32"
      },
      {
        "astId": 1268,
        "contract": "contracts/RNGChainlink.sol:RNGChainlink",
        "label": "fee",
        "offset": 0,
        "slot": "5",
        "type": "t_uint256"
      },
      {
        "astId": 1270,
        "contract": "contracts/RNGChainlink.sol:RNGChainlink",
        "label": "requestCount",
        "offset": 0,
        "slot": "6",
        "type": "t_uint32"
      },
      {
        "astId": 1274,
        "contract": "contracts/RNGChainlink.sol:RNGChainlink",
        "label": "randomNumbers",
        "offset": 0,
        "slot": "7",
        "type": "t_mapping(t_uint32,t_uint256)"
      },
      {
        "astId": 1278,
        "contract": "contracts/RNGChainlink.sol:RNGChainlink",
        "label": "requestLockBlock",
        "offset": 0,
        "slot": "8",
        "type": "t_mapping(t_uint32,t_uint32)"
      },
      {
        "astId": 1282,
        "contract": "contracts/RNGChainlink.sol:RNGChainlink",
        "label": "chainlinkRequestIds",
        "offset": 0,
        "slot": "9",
        "type": "t_mapping(t_bytes32,t_uint32)"
      }
    ],
    "types": {
      "t_address": {
        "encoding": "inplace",
        "label": "address",
        "numberOfBytes": "20"
      },
      "t_bytes32": {
        "encoding": "inplace",
        "label": "bytes32",
        "numberOfBytes": "32"
      },
      "t_contract(LinkTokenInterface)245": {
        "encoding": "inplace",
        "label": "contract LinkTokenInterface",
        "numberOfBytes": "20"
      },
      "t_mapping(t_bytes32,t_uint256)": {
        "encoding": "mapping",
        "key": "t_bytes32",
        "label": "mapping(bytes32 => uint256)",
        "numberOfBytes": "32",
        "value": "t_uint256"
      },
      "t_mapping(t_bytes32,t_uint32)": {
        "encoding": "mapping",
        "key": "t_bytes32",
        "label": "mapping(bytes32 => uint32)",
        "numberOfBytes": "32",
        "value": "t_uint32"
      },
      "t_mapping(t_uint32,t_uint256)": {
        "encoding": "mapping",
        "key": "t_uint32",
        "label": "mapping(uint32 => uint256)",
        "numberOfBytes": "32",
        "value": "t_uint256"
      },
      "t_mapping(t_uint32,t_uint32)": {
        "encoding": "mapping",
        "key": "t_uint32",
        "label": "mapping(uint32 => uint32)",
        "numberOfBytes": "32",
        "value": "t_uint32"
      },
      "t_uint256": {
        "encoding": "inplace",
        "label": "uint256",
        "numberOfBytes": "32"
      },
      "t_uint32": {
        "encoding": "inplace",
        "label": "uint32",
        "numberOfBytes": "4"
      }
    }
  }
}