{
  "abi": [
    {
      "inputs": [
        {
          "internalType": "address",
          "name": "_vrfCoordinator",
          "type": "address"
        },
        {
          "internalType": "address",
          "name": "_link",
          "type": "address"
        }
      ],
      "stateMutability": "nonpayable",
      "type": "constructor"
    },
    {
      "anonymous": false,
      "inputs": [
        {
          "indexed": false,
          "internalType": "uint256",
          "name": "fee",
          "type": "uint256"
        }
      ],
      "name": "FeeSet",
      "type": "event"
    },
    {
      "anonymous": false,
      "inputs": [
        {
          "indexed": false,
          "internalType": "bytes32",
          "name": "keyHash",
          "type": "bytes32"
        }
      ],
      "name": "KeyHashSet",
      "type": "event"
    },
    {
      "anonymous": false,
      "inputs": [
        {
          "indexed": true,
          "internalType": "address",
          "name": "previousOwner",
          "type": "address"
        },
        {
          "indexed": true,
          "internalType": "address",
          "name": "newOwner",
          "type": "address"
        }
      ],
      "name": "OwnershipTransferred",
      "type": "event"
    },
    {
      "anonymous": false,
      "inputs": [
        {
          "indexed": true,
          "internalType": "uint32",
          "name": "requestId",
          "type": "uint32"
        },
        {
          "indexed": false,
          "internalType": "uint256",
          "name": "randomNumber",
          "type": "uint256"
        }
      ],
      "name": "RandomNumberCompleted",
      "type": "event"
    },
    {
      "anonymous": false,
      "inputs": [
        {
          "indexed": true,
          "internalType": "uint32",
          "name": "requestId",
          "type": "uint32"
        },
        {
          "indexed": true,
          "internalType": "address",
          "name": "sender",
          "type": "address"
        }
      ],
      "name": "RandomNumberRequested",
      "type": "event"
    },
    {
      "anonymous": false,
      "inputs": [
        {
          "indexed": true,
          "internalType": "uint256",
          "name": "requestId",
          "type": "uint256"
        },
        {
          "indexed": true,
          "internalType": "bytes32",
          "name": "chainlinkRequestId",
          "type": "bytes32"
        }
      ],
      "name": "VRFRequested",
      "type": "event"
    },
    {
      "anonymous": false,
      "inputs": [
        {
          "indexed": true,
          "internalType": "address",
          "name": "vrfCoordinator",
          "type": "address"
        }
      ],
      "name": "VrfCoordinatorSet",
      "type": "event"
    },
    {
      "inputs": [],
      "name": "fee",
      "outputs": [
        {
          "internalType": "uint256",
          "name": "",
          "type": "uint256"
        }
      ],
      "stateMutability": "view",
      "type": "function"
    },
    {
      "inputs": [],
      "name": "getLastRequestId",
      "outputs": [
        {
          "internalType": "uint32",
          "name": "requestId",
          "type": "uint32"
        }
      ],
      "stateMutability": "view",
      "type": "function"
    },
    {
      "inputs": [],
      "name": "getLink",
      "outputs": [
        {
          "internalType": "address",
          "name": "",
          "type": "address"
        }
      ],
      "stateMutability": "view",
      "type": "function"
    },
    {
      "inputs": [],
      "name": "getRequestFee",
      "outputs": [
        {
          "internalType": "address",
          "name": "feeToken",
          "type": "address"
        },
        {
          "internalType": "uint256",
          "name": "requestFee",
          "type": "uint256"
        }
      ],
      "stateMutability": "view",
      "type": "function"
    },
    {
      "inputs": [
        {
          "internalType": "uint32",
          "name": "requestId",
          "type": "uint32"
        }
      ],
      "name": "isRequestComplete",
      "outputs": [
        {
          "internalType": "bool",
          "name": "isCompleted",
          "type": "bool"
        }
      ],
      "stateMutability": "view",
      "type": "function"
    },
    {
      "inputs": [],
      "name": "keyHash",
      "outputs": [
        {
          "internalType": "bytes32",
          "name": "",
          "type": "bytes32"
        }
      ],
      "stateMutability": "view",
      "type": "function"
    },
    {
      "inputs": [
        {
          "internalType": "bytes32",
          "name": "",
          "type": "bytes32"
        }
      ],
      "name": "nonces",
      "outputs": [
        {
          "internalType": "uint256",
          "name": "",
          "type": "uint256"
        }
      ],
      "stateMutability": "view",
      "type": "function"
    },
    {
      "inputs": [],
      "name": "owner",
      "outputs": [
        {
          "internalType": "address",
          "name": "",
          "type": "address"
        }
      ],
      "stateMutability": "view",
      "type": "function"
    },
    {
      "inputs": [
        {
          "internalType": "uint32",
          "name": "requestId",
          "type": "uint32"
        }
      ],
      "name": "randomNumber",
      "outputs": [
        {
          "internalType": "uint256",
          "name": "randomNum",
          "type": "uint256"
        }
      ],
      "stateMutability": "nonpayable",
      "type": "function"
    },
    {
      "inputs": [
        {
          "internalType": "bytes32",
          "name": "requestId",
          "type": "bytes32"
        },
        {
          "internalType": "uint256",
          "name": "randomness",
          "type": "uint256"
        }
      ],
      "name": "rawFulfillRandomness",
      "outputs": [],
      "stateMutability": "nonpayable",
      "type": "function"
    },
    {
      "inputs": [],
      "name": "renounceOwnership",
      "outputs": [],
      "stateMutability": "nonpayable",
      "type": "function"
    },
    {
      "inputs": [],
      "name": "requestCount",
      "outputs": [
        {
          "internalType": "uint32",
          "name": "",
          "type": "uint32"
        }
      ],
      "stateMutability": "view",
      "type": "function"
    },
    {
      "inputs": [],
      "name": "requestRandomNumber",
      "outputs": [
        {
          "internalType": "uint32",
          "name": "requestId",
          "type": "uint32"
        },
        {
          "internalType": "uint32",
          "name": "lockBlock",
          "type": "uint32"
        }
      ],
      "stateMutability": "nonpayable",
      "type": "function"
    },
    {
      "inputs": [
        {
          "internalType": "bytes32",
          "name": "_keyHash",
          "type": "bytes32"
        },
        {
          "internalType": "uint256",
          "name": "_fee",
          "type": "uint256"
        },
        {
          "internalType": "uint256",
          "name": "_seed",
          "type": "uint256"
        }
      ],
      "name": "requestRandomness",
      "outputs": [
        {
          "internalType": "bytes32",
          "name": "requestId",
          "type": "bytes32"
        }
      ],
      "stateMutability": "nonpayable",
      "type": "function"
    },
    {
      "inputs": [
        {
          "internalType": "uint256",
          "name": "_fee",
          "type": "uint256"
        }
      ],
      "name": "setFee",
      "outputs": [],
      "stateMutability": "nonpayable",
      "type": "function"
    },
    {
      "inputs": [
        {
          "internalType": "bytes32",
          "name": "_keyhash",
          "type": "bytes32"
        }
      ],
      "name": "setKeyhash",
      "outputs": [],
      "stateMutability": "nonpayable",
      "type": "function"
    },
    {
      "inputs": [
        {
          "internalType": "address",
          "name": "newOwner",
          "type": "address"
        }
      ],
      "name": "transferOwnership",
      "outputs": [],
      "stateMutability": "nonpayable",
      "type": "function"
    }
  ],
  "address": "0x9eA5656117f4d42CF82AfE2d9686004BDaAea2B3",
  "args": [
    "0x8C7382F9D8f56b33781fE506E897a4F1e2d17255",
    "0x326C977E6efc84E512bB9C30f76E30c160eD06FB"
  ],
  "solcInputHash": "0xe5adac77e4b1cf84e431fab26a46f655c9f0a1c79247a6017a44fb8fe4816efb",
  "bytecode": "0x60c060405234801561001057600080fd5b50604051610e59380380610e598339818101604052604081101561003357600080fd5b5080516020909101516001600160601b0319606083811b821660a05282901b1660805260006100696001600160e01b036100f216565b600180546001600160a01b0319166001600160a01b038316908117909155604051919250906000907f8be0079c531659141344cd1fd0a4f28419497f9722a3daafe3b4186f6b6457e0908290a3506040516001600160a01b038316907f4cc41e06d3d0588be9be0e1469ba1934c4bd1cb8f4f70adf2aa31f4b92134b2790600090a250506100f6565b3390565b60805160601c60a05160601c610d26610133600039806106b8528061079552508061030f52806105745280610766528061092c5250610d266000f3fe608060405234801561001057600080fd5b506004361061010b5760003560e01c80638678a7b2116100a25780639e317f12116100715780639e317f121461028e578063dc6cfe10146102ab578063ddca3f43146102d4578063e2d84e23146102dc578063f2fde38b146102e45761010b565b80638678a7b2146101f95780638da5cb5b1461022457806394985ddd146102485780639d2a5f981461026b5761010b565b806361728f39116100de57806361728f391461019b5780636309b773146101b557806369fe0e2d146101d4578063715018a6146101f15761010b565b80630d37b5371461011057806319c2b4c31461013b5780633a19b9bc1461015c5780635badbe4c14610193575b600080fd5b61011861030a565b604080516001600160a01b03909316835260208301919091528051918290030190f35b610143610331565b6040805163ffffffff9092168252519081900360200190f35b61017f6004803603602081101561017257600080fd5b503563ffffffff1661033d565b604080519115158252519081900360200190f35b610143610357565b6101a3610363565b60408051918252519081900360200190f35b6101d2600480360360208110156101cb57600080fd5b5035610369565b005b6101d2600480360360208110156101ea57600080fd5b50356103fc565b6101d261048f565b610201610531565b6040805163ffffffff938416815291909216602082015281519081900390910190f35b61022c61069e565b604080516001600160a01b039092168252519081900360200190f35b6101d26004803603604081101561025e57600080fd5b50803590602001356106ad565b6101a36004803603602081101561028157600080fd5b503563ffffffff16610738565b6101a3600480360360208110156102a457600080fd5b5035610750565b6101a3600480360360608110156102c157600080fd5b5080359060208101359060400135610762565b6101a3610924565b61022c61092a565b6101d2600480360360208110156102fa57600080fd5b50356001600160a01b031661094e565b6003547f000000000000000000000000000000000000000000000000000000000000000091565b60045463ffffffff1690565b63ffffffff16600090815260056020526040902054151590565b60045463ffffffff1681565b60025481565b610371610a47565b6001546001600160a01b039081169116146103c1576040805162461bcd60e51b81526020600482018190526024820152600080516020610cab833981519152604482015290519081900360640190fd5b60028190556040805182815290517fd013f86c8346660ebf421351882cd1b3c2f91883092df1800264c656b0db0cc69181900360200190a150565b610404610a47565b6001546001600160a01b03908116911614610454576040805162461bcd60e51b81526020600482018190526024820152600080516020610cab833981519152604482015290519081900360640190fd5b60038190556040805182815290517f20461e09b8e557b77e107939f9ce6544698123aad0fc964ac5cc59b7df2e608f9181900360200190a150565b610497610a47565b6001546001600160a01b039081169116146104e7576040805162461bcd60e51b81526020600482018190526024820152600080516020610cab833981519152604482015290519081900360640190fd5b6001546040516000916001600160a01b0316907f8be0079c531659141344cd1fd0a4f28419497f9722a3daafe3b4186f6b6457e0908390a3600180546001600160a01b0319169055565b600080600061053e610a4b565b600354604080516323b872dd60e01b81523360048201523060248201526044810192909252514394509192506001600160a01b037f000000000000000000000000000000000000000000000000000000000000000016916323b872dd916064808201926020929091908290030181600087803b1580156105bd57600080fd5b505af11580156105d1573d6000803e3d6000fd5b505050506040513d60208110156105e757600080fd5b505161063a576040805162461bcd60e51b815260206004820181905260248201527f524e47436861696e6c696e6b2f6665652d7472616e736665722d6661696c6564604482015290519081900360640190fd5b61064381610a54565b63ffffffff818116600081815260066020526040808220805463ffffffff1916948816949094179093559151929550339290917fcf635b20f2defc1e71326dc4f0b616fa676e29a5bae87da19fcaddc550b33f0391a3509091565b6001546001600160a01b031690565b336001600160a01b037f0000000000000000000000000000000000000000000000000000000000000000161461072a576040805162461bcd60e51b815260206004820152601f60248201527f4f6e6c7920565246436f6f7264696e61746f722063616e2066756c66696c6c00604482015290519081900360640190fd5b6107348282610ac8565b5050565b63ffffffff1660009081526005602052604090205490565b60006020819052908152604090205481565b60007f00000000000000000000000000000000000000000000000000000000000000006001600160a01b0316634000aea07f000000000000000000000000000000000000000000000000000000000000000085878660405160200180838152602001828152602001925050506040516020818303038152906040526040518463ffffffff1660e01b815260040180846001600160a01b03166001600160a01b0316815260200183815260200180602001828103825283818151815260200191508051906020019080838360005b8381101561084757818101518382015260200161082f565b50505050905090810190601f1680156108745780820380516001836020036101000a031916815260200191505b50945050505050602060405180830381600087803b15801561089557600080fd5b505af11580156108a9573d6000803e3d6000fd5b505050506040513d60208110156108bf57600080fd5b50506000848152602081905260408120546108df90869085903090610b24565b60008681526020819052604090205490915061090290600163ffffffff610b6b16565b60008681526020819052604090205561091b8582610bcc565b95945050505050565b60035481565b7f000000000000000000000000000000000000000000000000000000000000000090565b610956610a47565b6001546001600160a01b039081169116146109a6576040805162461bcd60e51b81526020600482018190526024820152600080516020610cab833981519152604482015290519081900360640190fd5b6001600160a01b0381166109eb5760405162461bcd60e51b8152600401808060200182810382526026815260200180610c856026913960400191505060405180910390fd5b6001546040516001600160a01b038084169216907f8be0079c531659141344cd1fd0a4f28419497f9722a3daafe3b4186f6b6457e090600090a3600180546001600160a01b0319166001600160a01b0392909216919091179055565b3390565b60001943014090565b6000610a5e610bf8565b90506000610a7160025460035485610762565b600081815260076020526040808220805463ffffffff191663ffffffff87169081179091559051929350839290917ff7617d06180c24c92bad8c8436c3ae97409a09e1f5655da6c0807f50c5f9674891a350919050565b60008281526007602090815260408083205463ffffffff1680845260058352928190208490558051848152905183927f629394f18de7accce1179c28c39be59503a57cbcf45980a2772743b041b36271928290030190a2505050565b60408051602080820196909652808201949094526001600160a01b039290921660608401526080808401919091528151808403909101815260a09092019052805191012090565b600082820183811015610bc5576040805162461bcd60e51b815260206004820152601b60248201527f536166654d6174683a206164646974696f6e206f766572666c6f770000000000604482015290519081900360640190fd5b9392505050565b604080516020808201949094528082019290925280518083038201815260609092019052805191012090565b600454600090610c1d90610c189063ffffffff90811690600190610b6b16565b610c3b565b6004805463ffffffff191663ffffffff928316179081905516919050565b60006401000000008210610c805760405162461bcd60e51b8152600401808060200182810382526026815260200180610ccb6026913960400191505060405180910390fd5b509056fe4f776e61626c653a206e6577206f776e657220697320746865207a65726f20616464726573734f776e61626c653a2063616c6c6572206973206e6f7420746865206f776e657253616665436173743a2076616c756520646f65736e27742066697420696e2033322062697473a264697066735822122069a390d399cb5c2741b1efda2da4868a798bb32c8cb970aa304f2491223bd23c64736f6c63430006060033",
  "devdoc": {
    "methods": {
      "constructor": {
        "details": "Public constructor"
      },
      "isRequestComplete(uint32)": {
        "details": "For time-delayed requests, this function is used to check/confirm completion",
        "params": {
          "requestId": "The ID of the request used to get the results of the RNG service"
        },
        "returns": {
          "isCompleted": "True if the request has completed and a random number is available, false otherwise"
        }
      },
      "owner()": {
        "details": "Returns the address of the current owner."
      },
      "randomNumber(uint32)": {
        "params": {
          "requestId": "The ID of the request used to get the results of the RNG service"
        },
        "returns": {
          "randomNum": "The random number"
        }
      },
      "renounceOwnership()": {
        "details": "Leaves the contract without owner. It will not be possible to call `onlyOwner` functions anymore. Can only be called by the current owner.     * NOTE: Renouncing ownership will leave the contract without an owner, thereby removing any functionality that is only available to the owner."
      },
      "requestRandomNumber()": {
        "details": "Some services will complete the request immediately, others may have a time-delaySome services require payment in the form of a token, such as $LINK for Chainlink VRF",
        "returns": {
          "lockBlock": "The block number at which the RNG service will start generating time-delayed randomness.  The calling contract should \"lock\" all activity until the result is available via the `requestId`",
          "requestId": "The ID of the request used to get the results of the RNG service"
        }
      },
      "requestRandomness(bytes32,uint256,uint256)": {
        "details": "See \"SECURITY CONSIDERATIONS\" above for more information on _seed.The fulfillRandomness method receives the output, once it's providedby the Oracle, and verified by the vrfCoordinator.The _keyHash must already be registered with the VRFCoordinator, andthe _fee must exceed the fee specified during registration of the_keyHash.The returned requestId can be used to distinguish responses to *concurrent requests. It is passed as the first argument tofulfillRandomness.",
        "params": {
          "_fee": "The amount of LINK to send with the request",
          "_keyHash": "ID of public key against which randomness is generated",
          "_seed": "seed mixed into the input of the VRF"
        },
        "returns": {
          "requestId": "unique ID for this request"
        }
      },
      "setFee(uint256)": {
        "params": {
          "_fee": "The fee to be charged for a request"
        }
      },
      "setKeyhash(bytes32)": {
        "params": {
          "_keyhash": "The keyhash to be used by the VRF"
        }
      },
      "transferOwnership(address)": {
        "details": "Transfers ownership of the contract to a new account (`newOwner`). Can only be called by the current owner."
      }
    }
  },
  "userdoc": {
    "methods": {
      "getLastRequestId()": {
        "notice": "Gets the last request id used by the RNG service"
      },
      "getRequestFee()": {
        "notice": "Gets the Fee for making a Request against an RNG service"
      },
      "isRequestComplete(uint32)": {
        "notice": "Checks if the request for randomness from the 3rd-party service has completed"
      },
      "randomNumber(uint32)": {
        "notice": "Gets the random number produced by the 3rd-party service"
      },
      "requestRandomNumber()": {
        "notice": "Sends a request for a random number to the 3rd-party service"
      },
      "requestRandomness(bytes32,uint256,uint256)": {
        "notice": "requestRandomness initiates a request for VRF output given _seed"
      },
      "setFee(uint256)": {
        "notice": "Allows governance to set the fee per request required by the VRF"
      },
      "setKeyhash(bytes32)": {
        "notice": "Allows governance to set the VRF keyhash"
      }
    }
  },
  "storageLayout": {
    "storage": [
      {
        "astId": 82,
        "contract": "contracts/RNGChainlink.sol:RNGChainlink",
        "label": "nonces",
        "offset": 0,
        "slot": "0",
        "type": "t_mapping(t_bytes32,t_uint256)"
      },
      {
        "astId": 437,
        "contract": "contracts/RNGChainlink.sol:RNGChainlink",
        "label": "_owner",
        "offset": 0,
        "slot": "1",
        "type": "t_address"
      },
      {
        "astId": 2092,
        "contract": "contracts/RNGChainlink.sol:RNGChainlink",
        "label": "keyHash",
        "offset": 0,
        "slot": "2",
        "type": "t_bytes32"
      },
      {
        "astId": 2094,
        "contract": "contracts/RNGChainlink.sol:RNGChainlink",
        "label": "fee",
        "offset": 0,
        "slot": "3",
        "type": "t_uint256"
      },
      {
        "astId": 2096,
        "contract": "contracts/RNGChainlink.sol:RNGChainlink",
        "label": "requestCount",
        "offset": 0,
        "slot": "4",
        "type": "t_uint32"
      },
      {
        "astId": 2100,
        "contract": "contracts/RNGChainlink.sol:RNGChainlink",
        "label": "randomNumbers",
        "offset": 0,
        "slot": "5",
        "type": "t_mapping(t_uint32,t_uint256)"
      },
      {
        "astId": 2104,
        "contract": "contracts/RNGChainlink.sol:RNGChainlink",
        "label": "requestLockBlock",
        "offset": 0,
        "slot": "6",
        "type": "t_mapping(t_uint32,t_uint32)"
      },
      {
        "astId": 2108,
        "contract": "contracts/RNGChainlink.sol:RNGChainlink",
        "label": "chainlinkRequestIds",
        "offset": 0,
        "slot": "7",
        "type": "t_mapping(t_bytes32,t_uint32)"
      }
    ],
    "types": {
      "t_address": {
        "encoding": "inplace",
        "label": "address",
        "numberOfBytes": "20"
      },
      "t_bytes32": {
        "encoding": "inplace",
        "label": "bytes32",
        "numberOfBytes": "32"
      },
      "t_mapping(t_bytes32,t_uint256)": {
        "encoding": "mapping",
        "key": "t_bytes32",
        "label": "mapping(bytes32 => uint256)",
        "numberOfBytes": "32",
        "value": "t_uint256"
      },
      "t_mapping(t_bytes32,t_uint32)": {
        "encoding": "mapping",
        "key": "t_bytes32",
        "label": "mapping(bytes32 => uint32)",
        "numberOfBytes": "32",
        "value": "t_uint32"
      },
      "t_mapping(t_uint32,t_uint256)": {
        "encoding": "mapping",
        "key": "t_uint32",
        "label": "mapping(uint32 => uint256)",
        "numberOfBytes": "32",
        "value": "t_uint256"
      },
      "t_mapping(t_uint32,t_uint32)": {
        "encoding": "mapping",
        "key": "t_uint32",
        "label": "mapping(uint32 => uint32)",
        "numberOfBytes": "32",
        "value": "t_uint32"
      },
      "t_uint256": {
        "encoding": "inplace",
        "label": "uint256",
        "numberOfBytes": "32"
      },
      "t_uint32": {
        "encoding": "inplace",
        "label": "uint32",
        "numberOfBytes": "4"
      }
    }
  },
  "gasEstimates": {
    "creation": {
      "codeDepositCost": "673200",
      "executionCost": "infinite",
      "totalCost": "infinite"
    },
    "external": {
      "fee()": "1064",
      "getLastRequestId()": "1059",
      "getLink()": "infinite",
      "getRequestFee()": "infinite",
      "isRequestComplete(uint32)": "1198",
      "keyHash()": "1021",
      "nonces(bytes32)": "1131",
      "owner()": "1082",
      "randomNumber(uint32)": "1207",
      "rawFulfillRandomness(bytes32,uint256)": "infinite",
      "renounceOwnership()": "infinite",
      "requestCount()": "1103",
      "requestRandomNumber()": "infinite",
      "requestRandomness(bytes32,uint256,uint256)": "infinite",
      "setFee(uint256)": "infinite",
      "setKeyhash(bytes32)": "infinite",
      "transferOwnership(address)": "infinite"
    },
    "internal": {
      "_getNextRequestId()": "infinite",
      "_getSeed()": "43",
      "_requestRandomness(uint256)": "infinite",
      "fulfillRandomness(bytes32,uint256)": "infinite"
    }
  }
}